:020000020000FC
:1000000026C018951895189515C018951895189527
:100010001895189518951895189518951895189578
:100020001895189518951895189518951895189568
:100030001895189568D00F9318D006B103FF03C028
:1000400040FD479547954BB90F9166D018950FEF36
:100050000DBF02E00EBF18D05FD08FEF8AB980E0ED
:1000600087B98FE788B94BD0FFCF1F932F933F936A
:1000700013E12FEF3FEF315020401040E0F73F9168
:100080002F911F918894089580E0082E80E0182E0B
:1000900080E0282E80E0382E80E0482E80E0582E28
:1000A00080E0682E80E0782E80E0882E80E0982E18
:1000B00080E0A82E80E0B82E80E0C82E80E0D82E08
:1000C00080E0E82E80E0F82E00E010E020E030E054
:1000D00040E050E060E070E080E090E0A0E0B0E060
:1000E000C0E0D0E0E0E0F0E0E0E0F1E000270193E4
:1000F000F230E9F7EE3FD9F7EE27FF270895B5DF95
:1001000040E84BB90895F8940F9300E0009368001D
:1001100000936C000F9108950F9302E00093680024
:100120000FEF00936C00002700931B000F91789451
:02013000089530
:00000001FF
